{
  "transactions": [
    {
      "hash": "0x72d4986c615116ca58195e2d55e1e720b9bb2149ca1d38365a561b8d30828776",
      "transactionType": "CALL",
      "contractName": "TestToken",
      "contractAddress": "0x1f5b4f9db87945a000a86854658d87e4471a13ce",
      "function": "approve(address,uint256)",
      "arguments": [
        "0x6799a7e3BF1FAfdc7fA2fdd220f45A94c7df2295",
        "1000000000000000000000"
      ],
      "transaction": {
        "from": "0xbeddb491255cc57e07ae15acc1caeac1df1f0e39",
        "to": "0x1f5b4f9db87945a000a86854658d87e4471a13ce",
        "gas": "0xfd42",
        "value": "0x0",
        "input": "0x095ea7b30000000000000000000000006799a7e3bf1fafdc7fa2fdd220f45a94c7df229500000000000000000000000000000000000000000000003635c9adc5dea00000",
        "nonce": "0x22",
        "chainId": "0xaa36a7"
      },
      "additionalContracts": [],
      "isFixedGasLimit": false
    },
    {
      "hash": "0xee14d8bf5f5fe2f423a8065666805b7ed7bf4aefc9ca6b82cf91a4d404099f1a",
      "transactionType": "CALL",
      "contractName": "StakingVault",
      "contractAddress": "0x6799a7e3bf1fafdc7fa2fdd220f45a94c7df2295",
      "function": "deposit(uint256)",
      "arguments": [
        "1000000000000000000000"
      ],
      "transaction": {
        "from": "0xbeddb491255cc57e07ae15acc1caeac1df1f0e39",
        "to": "0x6799a7e3bf1fafdc7fa2fdd220f45a94c7df2295",
        "gas": "0x2e448",
        "value": "0x0",
        "input": "0xb6b55f2500000000000000000000000000000000000000000000003635c9adc5dea00000",
        "nonce": "0x23",
        "chainId": "0xaa36a7"
      },
      "additionalContracts": [],
      "isFixedGasLimit": false
    },
    {
      "hash": "0xe026a69b4cc96040ecf850613528afc82279248ce031e15031f0a28c04634ef4",
      "transactionType": "CALL",
      "contractName": "StakingVault",
      "contractAddress": "0x6799a7e3bf1fafdc7fa2fdd220f45a94c7df2295",
      "function": "claimReward()",
      "arguments": [],
      "transaction": {
        "from": "0xbeddb491255cc57e07ae15acc1caeac1df1f0e39",
        "to": "0x6799a7e3bf1fafdc7fa2fdd220f45a94c7df2295",
        "gas": "0x128f4",
        "value": "0x0",
        "input": "0xb88a802f",
        "nonce": "0x24",
        "chainId": "0xaa36a7"
      },
      "additionalContracts": [],
      "isFixedGasLimit": false
    },
    {
      "hash": "0xea4df6aace3fa5f77d89fa1702b08561bd0fa7d4d004be23d07c4adf3e5095fb",
      "transactionType": "CALL",
      "contractName": "StakingVault",
      "contractAddress": "0x6799a7e3bf1fafdc7fa2fdd220f45a94c7df2295",
      "function": "withdraw(uint256)",
      "arguments": [
        "500000000000000000000"
      ],
      "transaction": {
        "from": "0xbeddb491255cc57e07ae15acc1caeac1df1f0e39",
        "to": "0x6799a7e3bf1fafdc7fa2fdd220f45a94c7df2295",
        "gas": "0x1793a",
        "value": "0x0",
        "input": "0x2e1a7d4d00000000000000000000000000000000000000000000001b1ae4d6e2ef500000",
        "nonce": "0x25",
        "chainId": "0xaa36a7"
      },
      "additionalContracts": [],
      "isFixedGasLimit": false
    }
  ],
  "receipts": [
    {
      "status": "0x1",
      "cumulativeGasUsed": "0x515462",
      "logs": [
        {
          "address": "0x1f5b4f9db87945a000a86854658d87e4471a13ce",
          "topics": [
            "0x8c5be1e5ebec7d5bd14f71427d1e84f3dd0314c0f7b2291e5b200ac8c7c3b925",
            "0x000000000000000000000000beddb491255cc57e07ae15acc1caeac1df1f0e39",
            "0x0000000000000000000000006799a7e3bf1fafdc7fa2fdd220f45a94c7df2295"
          ],
          "data": "0x00000000000000000000000000000000000000000000003635c9adc5dea00000",
          "blockHash": "0xa18289863f9ecded1e612ea0a04afbe81030704c845a326de52aeeff24de277e",
          "blockNumber": "0x917cf9",
          "blockTimestamp": "0x690587c4",
          "transactionHash": "0x72d4986c615116ca58195e2d55e1e720b9bb2149ca1d38365a561b8d30828776",
          "transactionIndex": "0x31",
          "logIndex": "0x2a",
          "removed": false
        }
      ],
      "logsBloom": "0x00000000000000000000000000000000000000000000000000000000000000001000000000000000000001000000000000200000000000000000000000200000000000000000000000000000000000000000000001000000000000000000000000000000000000000000000000000000100000000000000000000000000000000000000000000000000000000000000000000000000000800000000000000000020000000000000000000000004000000000000000000000000000000000000000000000000000000000000400000000000000000000000000000000000000000010000000000000000000000000000000004000000000000000000000000000",
      "type": "0x2",
      "transactionHash": "0x72d4986c615116ca58195e2d55e1e720b9bb2149ca1d38365a561b8d30828776",
      "transactionIndex": "0x31",
      "blockHash": "0xa18289863f9ecded1e612ea0a04afbe81030704c845a326de52aeeff24de277e",
      "blockNumber": "0x917cf9",
      "gasUsed": "0xb75c",
      "effectiveGasPrice": "0xf4249",
      "from": "0xbeddb491255cc57e07ae15acc1caeac1df1f0e39",
      "to": "0x1f5b4f9db87945a000a86854658d87e4471a13ce",
      "contractAddress": null
    },
    {
      "status": "0x1",
      "cumulativeGasUsed": "0x536c56",
      "logs": [
        {
          "address": "0x1f5b4f9db87945a000a86854658d87e4471a13ce",
          "topics": [
            "0xddf252ad1be2c89b69c2b068fc378daa952ba7f163c4a11628f55a4df523b3ef",
            "0x000000000000000000000000beddb491255cc57e07ae15acc1caeac1df1f0e39",
            "0x0000000000000000000000006799a7e3bf1fafdc7fa2fdd220f45a94c7df2295"
          ],
          "data": "0x00000000000000000000000000000000000000000000003635c9adc5dea00000",
          "blockHash": "0xa18289863f9ecded1e612ea0a04afbe81030704c845a326de52aeeff24de277e",
          "blockNumber": "0x917cf9",
          "blockTimestamp": "0x690587c4",
          "transactionHash": "0xee14d8bf5f5fe2f423a8065666805b7ed7bf4aefc9ca6b82cf91a4d404099f1a",
          "transactionIndex": "0x32",
          "logIndex": "0x2b",
          "removed": false
        },
        {
          "address": "0x6799a7e3bf1fafdc7fa2fdd220f45a94c7df2295",
          "topics": [
            "0x73a19dd210f1a7f902193214c0ee91dd35ee5b4d920cba8d519eca65a7b488ca",
            "0x000000000000000000000000beddb491255cc57e07ae15acc1caeac1df1f0e39"
          ],
          "data": "0x00000000000000000000000000000000000000000000003635c9adc5dea0000000000000000000000000000000000000000000000000003635c9adc5dea00000",
          "blockHash": "0xa18289863f9ecded1e612ea0a04afbe81030704c845a326de52aeeff24de277e",
          "blockNumber": "0x917cf9",
          "blockTimestamp": "0x690587c4",
          "transactionHash": "0xee14d8bf5f5fe2f423a8065666805b7ed7bf4aefc9ca6b82cf91a4d404099f1a",
          "transactionIndex": "0x32",
          "logIndex": "0x2c",
          "removed": false
        }
      ],
      "logsBloom": "0x00000000000000000000000000000000000000000000000000200000000000001000000000000000000901000000000000200000000000000000000000000000000000000000000000000008000000000000000001000000000000000000000000000000000000000000000000000000100000080000000000000010000000000000000000000000000000000000000000000000000000800000000000000000000000000000000000000000004002002000000000000000000000000000000000000002000000000000000400000000000000000000000000000000000000000000000000000000000000000000000000004000000000000000000000000000",
      "type": "0x2",
      "transactionHash": "0xee14d8bf5f5fe2f423a8065666805b7ed7bf4aefc9ca6b82cf91a4d404099f1a",
      "transactionIndex": "0x32",
      "blockHash": "0xa18289863f9ecded1e612ea0a04afbe81030704c845a326de52aeeff24de277e",
      "blockNumber": "0x917cf9",
      "gasUsed": "0x217f4",
      "effectiveGasPrice": "0xf4249",
      "from": "0xbeddb491255cc57e07ae15acc1caeac1df1f0e39",
      "to": "0x6799a7e3bf1fafdc7fa2fdd220f45a94c7df2295",
      "contractAddress": null
    },
    {
      "status": "0x1",
      "cumulativeGasUsed": "0x544354",
      "logs": [
        {
          "address": "0x1f5b4f9db87945a000a86854658d87e4471a13ce",
          "topics": [
            "0xddf252ad1be2c89b69c2b068fc378daa952ba7f163c4a11628f55a4df523b3ef",
            "0x0000000000000000000000006799a7e3bf1fafdc7fa2fdd220f45a94c7df2295",
            "0x000000000000000000000000beddb491255cc57e07ae15acc1caeac1df1f0e39"
          ],
          "data": "0x000000000000000000000000000000000000000000000000053b5110eed98150",
          "blockHash": "0xa18289863f9ecded1e612ea0a04afbe81030704c845a326de52aeeff24de277e",
          "blockNumber": "0x917cf9",
          "blockTimestamp": "0x690587c4",
          "transactionHash": "0xe026a69b4cc96040ecf850613528afc82279248ce031e15031f0a28c04634ef4",
          "transactionIndex": "0x33",
          "logIndex": "0x2d",
          "removed": false
        },
        {
          "address": "0x6799a7e3bf1fafdc7fa2fdd220f45a94c7df2295",
          "topics": [
            "0xe2403640ba68fed3a2f88b7557551d1993f84b99bb10ff833f0cf8db0c5e0486",
            "0x000000000000000000000000beddb491255cc57e07ae15acc1caeac1df1f0e39"
          ],
          "data": "0x000000000000000000000000000000000000000000000000053b5110eed98150",
          "blockHash": "0xa18289863f9ecded1e612ea0a04afbe81030704c845a326de52aeeff24de277e",
          "blockNumber": "0x917cf9",
          "blockTimestamp": "0x690587c4",
          "transactionHash": "0xe026a69b4cc96040ecf850613528afc82279248ce031e15031f0a28c04634ef4",
          "transactionIndex": "0x33",
          "logIndex": "0x2e",
          "removed": false
        }
      ],
      "logsBloom": "0x00000000000000000000000000000000000000008000000000200000000000001000000000000000000001000000000000200000000000000000000000000000000000000000000000000008000000000000000001000000000000000000000000000000000000000000000000000000100000080000000000000010000000000000000100000000000000000800000000000000000000800000000000000000000000000000000000000000004002000000000000000000000000000000000000000002000000000000000400000000000000000000000000000000000000000000000000000000000000000000000000004000000000000000000000000000",
      "type": "0x2",
      "transactionHash": "0xe026a69b4cc96040ecf850613528afc82279248ce031e15031f0a28c04634ef4",
      "transactionIndex": "0x33",
      "blockHash": "0xa18289863f9ecded1e612ea0a04afbe81030704c845a326de52aeeff24de277e",
      "blockNumber": "0x917cf9",
      "gasUsed": "0xd6fe",
      "effectiveGasPrice": "0xf4249",
      "from": "0xbeddb491255cc57e07ae15acc1caeac1df1f0e39",
      "to": "0x6799a7e3bf1fafdc7fa2fdd220f45a94c7df2295",
      "contractAddress": null
    },
    {
      "status": "0x1",
      "cumulativeGasUsed": "0x555470",
      "logs": [
        {
          "address": "0x1f5b4f9db87945a000a86854658d87e4471a13ce",
          "topics": [
            "0xddf252ad1be2c89b69c2b068fc378daa952ba7f163c4a11628f55a4df523b3ef",
            "0x0000000000000000000000006799a7e3bf1fafdc7fa2fdd220f45a94c7df2295",
            "0x000000000000000000000000beddb491255cc57e07ae15acc1caeac1df1f0e39"
          ],
          "data": "0x00000000000000000000000000000000000000000000001b1ae4d6e2ef500000",
          "blockHash": "0xa18289863f9ecded1e612ea0a04afbe81030704c845a326de52aeeff24de277e",
          "blockNumber": "0x917cf9",
          "blockTimestamp": "0x690587c4",
          "transactionHash": "0xea4df6aace3fa5f77d89fa1702b08561bd0fa7d4d004be23d07c4adf3e5095fb",
          "transactionIndex": "0x34",
          "logIndex": "0x2f",
          "removed": false
        },
        {
          "address": "0x6799a7e3bf1fafdc7fa2fdd220f45a94c7df2295",
          "topics": [
            "0x92ccf450a286a957af52509bc1c9939d1a6a481783e142e41e2499f0bb66ebc6",
            "0x000000000000000000000000beddb491255cc57e07ae15acc1caeac1df1f0e39"
          ],
          "data": "0x00000000000000000000000000000000000000000000001b1ae4d6e2ef50000000000000000000000000000000000000000000000000001b1ae4d6e2ef500000",
          "blockHash": "0xa18289863f9ecded1e612ea0a04afbe81030704c845a326de52aeeff24de277e",
          "blockNumber": "0x917cf9",
          "blockTimestamp": "0x690587c4",
          "transactionHash": "0xea4df6aace3fa5f77d89fa1702b08561bd0fa7d4d004be23d07c4adf3e5095fb",
          "transactionIndex": "0x34",
          "logIndex": "0x30",
          "removed": false
        }
      ],
      "logsBloom": "0x00000000000000000000000000000000000000000000000000200000000000001000000000000000000001000000000000200000000000000000000000004000000000000000000000000008000000000002000001000000000000000000000000000000000000000000000000000000100000080000000000000010000000000000000000000000000000000000000000000000000000800000000000000000000000000000000000000000004002000000000000000000000000000000000000000002000000000000000c00000000000000000000000000000000000000000000000000000000000000000000000000004000000000000000000000000000",
      "type": "0x2",
      "transactionHash": "0xea4df6aace3fa5f77d89fa1702b08561bd0fa7d4d004be23d07c4adf3e5095fb",
      "transactionIndex": "0x34",
      "blockHash": "0xa18289863f9ecded1e612ea0a04afbe81030704c845a326de52aeeff24de277e",
      "blockNumber": "0x917cf9",
      "gasUsed": "0x1111c",
      "effectiveGasPrice": "0xf4249",
      "from": "0xbeddb491255cc57e07ae15acc1caeac1df1f0e39",
      "to": "0x6799a7e3bf1fafdc7fa2fdd220f45a94c7df2295",
      "contractAddress": null
    }
  ],
  "libraries": [],
  "pending": [],
  "returns": {},
  "timestamp": 1761970118125,
  "chain": 11155111,
  "commit": null
}